{
  "_format": "hh-sol-artifact-1",
  "contractName": "DAO",
  "sourceName": "contracts/DAO.sol",
  "abi": [
    {
      "anonymous": false,
      "inputs": [
        {
          "indexed": true,
          "internalType": "address",
          "name": "from",
          "type": "address"
        },
        {
          "indexed": false,
          "internalType": "uint256",
          "name": "timestamp",
          "type": "uint256"
        },
        {
          "components": [
            {
              "internalType": "uint256",
              "name": "id",
              "type": "uint256"
            },
            {
              "internalType": "uint256",
              "name": "price",
              "type": "uint256"
            },
            {
              "internalType": "address",
              "name": "developer",
              "type": "address"
            },
            {
              "internalType": "string",
              "name": "name",
              "type": "string"
            },
            {
              "internalType": "string",
              "name": "description",
              "type": "string"
            },
            {
              "internalType": "string",
              "name": "longitude",
              "type": "string"
            },
            {
              "internalType": "string",
              "name": "latitude",
              "type": "string"
            },
            {
              "internalType": "string",
              "name": "image_hash",
              "type": "string"
            }
          ],
          "indexed": false,
          "internalType": "struct DAO.Property",
          "name": "property",
          "type": "tuple"
        }
      ],
      "name": "NewProperty",
      "type": "event"
    },
    {
      "anonymous": false,
      "inputs": [
        {
          "indexed": true,
          "internalType": "address",
          "name": "previousOwner",
          "type": "address"
        },
        {
          "indexed": true,
          "internalType": "address",
          "name": "newOwner",
          "type": "address"
        }
      ],
      "name": "OwnershipTransferred",
      "type": "event"
    },
    {
      "inputs": [
        {
          "internalType": "string",
          "name": "_kyc_hash",
          "type": "string"
        }
      ],
      "name": "createDeveloper",
      "outputs": [],
      "stateMutability": "payable",
      "type": "function"
    },
    {
      "inputs": [
        {
          "internalType": "string",
          "name": "_kyc_hash",
          "type": "string"
        }
      ],
      "name": "createInvestor",
      "outputs": [],
      "stateMutability": "nonpayable",
      "type": "function"
    },
    {
      "inputs": [
        {
          "internalType": "uint256",
          "name": "_price",
          "type": "uint256"
        },
        {
          "internalType": "string",
          "name": "_name",
          "type": "string"
        },
        {
          "internalType": "string",
          "name": "_description",
          "type": "string"
        },
        {
          "internalType": "string",
          "name": "_longitude",
          "type": "string"
        },
        {
          "internalType": "string",
          "name": "_latitude",
          "type": "string"
        },
        {
          "internalType": "string",
          "name": "_image_hash",
          "type": "string"
        }
      ],
      "name": "createProperty",
      "outputs": [
        {
          "internalType": "bool",
          "name": "",
          "type": "bool"
        }
      ],
      "stateMutability": "nonpayable",
      "type": "function"
    },
    {
      "inputs": [
        {
          "internalType": "string",
          "name": "_kyc_hash",
          "type": "string"
        }
      ],
      "name": "createValidator",
      "outputs": [],
      "stateMutability": "payable",
      "type": "function"
    },
    {
      "inputs": [],
      "name": "gemmi",
      "outputs": [
        {
          "internalType": "int256",
          "name": "",
          "type": "int256"
        }
      ],
      "stateMutability": "nonpayable",
      "type": "function"
    },
    {
      "inputs": [],
      "name": "getAllProperty",
      "outputs": [
        {
          "components": [
            {
              "internalType": "uint256",
              "name": "id",
              "type": "uint256"
            },
            {
              "internalType": "uint256",
              "name": "price",
              "type": "uint256"
            },
            {
              "internalType": "address",
              "name": "developer",
              "type": "address"
            },
            {
              "internalType": "string",
              "name": "name",
              "type": "string"
            },
            {
              "internalType": "string",
              "name": "description",
              "type": "string"
            },
            {
              "internalType": "string",
              "name": "longitude",
              "type": "string"
            },
            {
              "internalType": "string",
              "name": "latitude",
              "type": "string"
            },
            {
              "internalType": "string",
              "name": "image_hash",
              "type": "string"
            }
          ],
          "internalType": "struct DAO.Property[]",
          "name": "",
          "type": "tuple[]"
        }
      ],
      "stateMutability": "view",
      "type": "function"
    },
    {
      "inputs": [],
      "name": "getDeveloperCreationFees",
      "outputs": [
        {
          "internalType": "uint256",
          "name": "",
          "type": "uint256"
        }
      ],
      "stateMutability": "nonpayable",
      "type": "function"
    },
    {
      "inputs": [],
      "name": "getValidatorCreationFees",
      "outputs": [
        {
          "internalType": "uint256",
          "name": "",
          "type": "uint256"
        }
      ],
      "stateMutability": "nonpayable",
      "type": "function"
    },
    {
      "inputs": [
        {
          "internalType": "uint256",
          "name": "_property_id",
          "type": "uint256"
        },
        {
          "internalType": "uint256",
          "name": "_amount",
          "type": "uint256"
        }
      ],
      "name": "invest",
      "outputs": [
        {
          "internalType": "uint256",
          "name": "",
          "type": "uint256"
        }
      ],
      "stateMutability": "payable",
      "type": "function"
    },
    {
      "inputs": [
        {
          "internalType": "uint256",
          "name": "",
          "type": "uint256"
        }
      ],
      "name": "investments",
      "outputs": [
        {
          "internalType": "uint256",
          "name": "property_id",
          "type": "uint256"
        },
        {
          "internalType": "address",
          "name": "investor",
          "type": "address"
        },
        {
          "internalType": "uint256",
          "name": "amount",
          "type": "uint256"
        }
      ],
      "stateMutability": "view",
      "type": "function"
    },
    {
      "inputs": [],
      "name": "owner",
      "outputs": [
        {
          "internalType": "address",
          "name": "",
          "type": "address"
        }
      ],
      "stateMutability": "view",
      "type": "function"
    },
    {
      "inputs": [
        {
          "internalType": "uint256",
          "name": "",
          "type": "uint256"
        }
      ],
      "name": "properties",
      "outputs": [
        {
          "internalType": "uint256",
          "name": "id",
          "type": "uint256"
        },
        {
          "internalType": "uint256",
          "name": "price",
          "type": "uint256"
        },
        {
          "internalType": "address",
          "name": "developer",
          "type": "address"
        },
        {
          "internalType": "string",
          "name": "name",
          "type": "string"
        },
        {
          "internalType": "string",
          "name": "description",
          "type": "string"
        },
        {
          "internalType": "string",
          "name": "longitude",
          "type": "string"
        },
        {
          "internalType": "string",
          "name": "latitude",
          "type": "string"
        },
        {
          "internalType": "string",
          "name": "image_hash",
          "type": "string"
        }
      ],
      "stateMutability": "view",
      "type": "function"
    },
    {
      "inputs": [],
      "name": "renounceOwnership",
      "outputs": [],
      "stateMutability": "nonpayable",
      "type": "function"
    },
    {
      "inputs": [
        {
          "internalType": "uint256",
          "name": "",
          "type": "uint256"
        }
      ],
      "name": "totalProperyInvestment",
      "outputs": [
        {
          "internalType": "uint256",
          "name": "",
          "type": "uint256"
        }
      ],
      "stateMutability": "view",
      "type": "function"
    },
    {
      "inputs": [
        {
          "internalType": "address",
          "name": "newOwner",
          "type": "address"
        }
      ],
      "name": "transferOwnership",
      "outputs": [],
      "stateMutability": "nonpayable",
      "type": "function"
    },
    {
      "inputs": [
        {
          "internalType": "address",
          "name": "",
          "type": "address"
        }
      ],
      "name": "users",
      "outputs": [
        {
          "internalType": "string",
          "name": "kyc_hash",
          "type": "string"
        },
        {
          "internalType": "string",
          "name": "account_type",
          "type": "string"
        },
        {
          "internalType": "bool",
          "name": "is_created",
          "type": "bool"
        }
      ],
      "stateMutability": "view",
      "type": "function"
    }
  ],
  "bytecode": "0x608060405234801561001057600080fd5b5061001a3361001f565b61006f565b600080546001600160a01b038381166001600160a01b0319831681178455604051919092169283917f8be0079c531659141344cd1fd0a4f28419497f9722a3daafe3b4186f6b6457e09190a35050565b611a6d8061007e6000396000f3fe6080604052600436106100f35760003560e01c8063bc8f58721161008a578063f2fde38b11610059578063f2fde38b14610270578063f5adfad614610290578063f7b10808146102b0578063fd345c8a146102e457600080fd5b8063bc8f58721461020a578063cf6acd471461021d578063d87aa64314610230578063e892bff81461024357600080fd5b80637b292b6d116100c65780637b292b6d1461016e5780638444fc611461019e5780638da5cb5b146101b3578063a87430ba146101db57600080fd5b806303644bd1146100f85780632bd99ce2146101235780636fc11b9014610142578063715018a614610157575b600080fd5b34801561010457600080fd5b5061010d610327565b60405161011a91906115e8565b60405180910390f35b34801561012f57600080fd5b506004545b60405190815260200161011a565b34801561014e57600080fd5b50600354610134565b34801561016357600080fd5b5061016c61068c565b005b34801561017a57600080fd5b5061018e6101893660046116ed565b6106f7565b604051901515815260200161011a565b3480156101aa57600080fd5b506101346108f1565b3480156101bf57600080fd5b506000546040516001600160a01b03909116815260200161011a565b3480156101e757600080fd5b506101fb6101f63660046117c7565b610973565b60405161011a939291906117f7565b61016c61021836600461182f565b610aa8565b61016c61022b36600461182f565b610bc5565b61013461023e36600461186c565b610ca9565b34801561024f57600080fd5b5061013461025e36600461188e565b60066020526000908152604090205481565b34801561027c57600080fd5b5061016c61028b3660046117c7565b610f20565b34801561029c57600080fd5b5061016c6102ab36600461182f565b610feb565b3480156102bc57600080fd5b506102d06102cb36600461188e565b6110b3565b60405161011a9897969594939291906118a7565b3480156102f057600080fd5b506103046102ff36600461188e565b6113bd565b604080519384526001600160a01b0390921660208401529082015260600161011a565b60606007805480602002602001604051908101604052809291908181526020016000905b828210156106835760008481526020908190206040805161010081018252600886029092018054835260018101549383019390935260028301546001600160a01b0316908201526003820180549192916060840191906103aa90611938565b80601f01602080910402602001604051908101604052809291908181526020018280546103d690611938565b80156104235780601f106103f857610100808354040283529160200191610423565b820191906000526020600020905b81548152906001019060200180831161040657829003601f168201915b5050505050815260200160048201805461043c90611938565b80601f016020809104026020016040519081016040528092919081815260200182805461046890611938565b80156104b55780601f1061048a576101008083540402835291602001916104b5565b820191906000526020600020905b81548152906001019060200180831161049857829003601f168201915b505050505081526020016005820180546104ce90611938565b80601f01602080910402602001604051908101604052809291908181526020018280546104fa90611938565b80156105475780601f1061051c57610100808354040283529160200191610547565b820191906000526020600020905b81548152906001019060200180831161052a57829003601f168201915b5050505050815260200160068201805461056090611938565b80601f016020809104026020016040519081016040528092919081815260200182805461058c90611938565b80156105d95780601f106105ae576101008083540402835291602001916105d9565b820191906000526020600020905b8154815290600101906020018083116105bc57829003601f168201915b505050505081526020016007820180546105f290611938565b80601f016020809104026020016040519081016040528092919081815260200182805461061e90611938565b801561066b5780601f106106405761010080835404028352916020019161066b565b820191906000526020600020905b81548152906001019060200180831161064e57829003601f168201915b5050505050815250508152602001906001019061034b565b50505050905090565b6000546001600160a01b031633146106eb5760405162461bcd60e51b815260206004820181905260248201527f4f776e61626c653a2063616c6c6572206973206e6f7420746865206f776e657260448201526064015b60405180910390fd5b6106f560006113fc565b565b600754600090819061070a906001611989565b604080516101008101825282815260208082018c815233938301938452606083018c8152608084018c905260a084018b905260c084018a905260e084018990526007805460018101825560009190915284517fa66cc928b5edb82af9bd49922954155ab7b0942694bea4ce44661d9a8736c688600890920291820190815592517fa66cc928b5edb82af9bd49922954155ab7b0942694bea4ce44661d9a8736c68982015594517fa66cc928b5edb82af9bd49922954155ab7b0942694bea4ce44661d9a8736c68a860180546001600160a01b0319166001600160a01b0390921691909117905551805195965092948594919361082c937fa66cc928b5edb82af9bd49922954155ab7b0942694bea4ce44661d9a8736c68b90930192019061144c565b506080820151805161084891600484019160209091019061144c565b5060a0820151805161086491600584019160209091019061144c565b5060c0820151805161088091600684019160209091019061144c565b5060e0820151805161089c91600784019160209091019061144c565b505050336001600160a01b03167f9632b955dd71afb7fcea833a5bc0ce9f07952a1ef1e64258f61b1e3c0c9d739142836040516108da9291906119a1565b60405180910390a250600198975050505050505050565b60025460408051638e15f47360e01b815290516000926001600160a01b031691638e15f473916004808301926020929190829003018186803b15801561093657600080fd5b505afa15801561094a573d6000803e3d6000fd5b505050506040513d601f19601f8201168201806040525081019061096e91906119ba565b905090565b60056020526000908152604090208054819061098e90611938565b80601f01602080910402602001604051908101604052809291908181526020018280546109ba90611938565b8015610a075780601f106109dc57610100808354040283529160200191610a07565b820191906000526020600020905b8154815290600101906020018083116109ea57829003601f168201915b505050505090806001018054610a1c90611938565b80601f0160208091040260200160405190810160405280929190818152602001828054610a4890611938565b8015610a955780601f10610a6a57610100808354040283529160200191610a95565b820191906000526020600020905b815481529060010190602001808311610a7857829003601f168201915b5050506002909301549192505060ff1683565b60035480341015610afb5760405162461bcd60e51b815260206004820152601d60248201527f596f7527726520726571756972656420746f207061792061206665657300000060448201526064016106e2565b3360009081526005602052604090206002015460ff1615610b2e5760405162461bcd60e51b81526004016106e2906119d3565b604080516060810182528381528151808301835260098152683232bb32b637b832b960b91b6020828101919091528083019190915260018284015233600090815260058252929092208151805192939192610b8c928492019061144c565b506020828101518051610ba5926001850192019061144c565b50604091909101516002909101805460ff19169115159190911790555050565b60045480341015610c185760405162461bcd60e51b815260206004820152601d60248201527f596f7527726520726571756972656420746f207061792061206665657300000060448201526064016106e2565b3360009081526005602052604090206002015460ff1615610c4b5760405162461bcd60e51b81526004016106e2906119d3565b604080516060810182528381528151808301835260098152683b30b634b230ba37b960b91b6020828101919091528083019190915260018284015233600090815260058252929092208151805192939192610b8c928492019061144c565b600082815260066020526040812054600780548592919083908110610cd057610cd0611a0a565b90600052602060002090600802016001015411610d2f5760405162461bcd60e51b815260206004820152601a60248201527f496e766573746d656e74206379636c6520636f6d706c6574656400000000000060448201526064016106e2565b823411610da45760405162461bcd60e51b815260206004820152603f60248201527f54686520616d6f756e7420796f752077616e7420746f20696e7665737420697360448201527f206c657373207468616e20746865206d73672e76616c756520616d6f756e740060648201526084016106e2565b600084815260066020526040812054610dbe908590611989565b9050600084905060078681548110610dd857610dd8611a0a565b906000526020600020906008020160010154821115610e33576000868152600660205260409020546007805488908110610e1457610e14611a0a565b906000526020600020906008020160010154610e309190611a20565b90505b60008681526006602052604081208054839290610e51908490611989565b90915550506040805160608101825296875233602088019081529087019586526008805460018101825560009190915296517ff3f7a9fe364faab93b216da50a3214154f22a0a2b415b23a84c8169e8b636ee3600390980297880155517ff3f7a9fe364faab93b216da50a3214154f22a0a2b415b23a84c8169e8b636ee4870180546001600160a01b0319166001600160a01b0390921691909117905593517ff3f7a9fe364faab93b216da50a3214154f22a0a2b415b23a84c8169e8b636ee590950194909455509092915050565b6000546001600160a01b03163314610f7a5760405162461bcd60e51b815260206004820181905260248201527f4f776e61626c653a2063616c6c6572206973206e6f7420746865206f776e657260448201526064016106e2565b6001600160a01b038116610fdf5760405162461bcd60e51b815260206004820152602660248201527f4f776e61626c653a206e6577206f776e657220697320746865207a65726f206160448201526564647265737360d01b60648201526084016106e2565b610fe8816113fc565b50565b3360009081526005602052604090206002015460ff161561101e5760405162461bcd60e51b81526004016106e2906119d3565b6040805160608101825282815281518083018352600881526734b73b32b9ba37b960c11b602082810191909152808301919091526001828401523360009081526005825292909220815180519293919261107b928492019061144c565b506020828101518051611094926001850192019061144c565b50604091909101516002909101805460ff191691151591909117905550565b600781815481106110c357600080fd5b6000918252602090912060089091020180546001820154600283015460038401805493955091936001600160a01b039091169290919061110290611938565b80601f016020809104026020016040519081016040528092919081815260200182805461112e90611938565b801561117b5780601f106111505761010080835404028352916020019161117b565b820191906000526020600020905b81548152906001019060200180831161115e57829003601f168201915b50505050509080600401805461119090611938565b80601f01602080910402602001604051908101604052809291908181526020018280546111bc90611938565b80156112095780601f106111de57610100808354040283529160200191611209565b820191906000526020600020905b8154815290600101906020018083116111ec57829003601f168201915b50505050509080600501805461121e90611938565b80601f016020809104026020016040519081016040528092919081815260200182805461124a90611938565b80156112975780601f1061126c57610100808354040283529160200191611297565b820191906000526020600020905b81548152906001019060200180831161127a57829003601f168201915b5050505050908060060180546112ac90611938565b80601f01602080910402602001604051908101604052809291908181526020018280546112d890611938565b80156113255780601f106112fa57610100808354040283529160200191611325565b820191906000526020600020905b81548152906001019060200180831161130857829003601f168201915b50505050509080600701805461133a90611938565b80601f016020809104026020016040519081016040528092919081815260200182805461136690611938565b80156113b35780601f10611388576101008083540402835291602001916113b3565b820191906000526020600020905b81548152906001019060200180831161139657829003601f168201915b5050505050905088565b600881815481106113cd57600080fd5b60009182526020909120600390910201805460018201546002909201549092506001600160a01b039091169083565b600080546001600160a01b038381166001600160a01b0319831681178455604051919092169283917f8be0079c531659141344cd1fd0a4f28419497f9722a3daafe3b4186f6b6457e09190a35050565b82805461145890611938565b90600052602060002090601f01602090048101928261147a57600085556114c0565b82601f1061149357805160ff19168380011785556114c0565b828001600101855582156114c0579182015b828111156114c05782518255916020019190600101906114a5565b506114cc9291506114d0565b5090565b5b808211156114cc57600081556001016114d1565b6000815180845260005b8181101561150b576020818501810151868301820152016114ef565b8181111561151d576000602083870101525b50601f01601f19169290920160200192915050565b60006101008251845260208301516020850152604083015161155f60408601826001600160a01b03169052565b506060830151816060860152611577828601826114e5565b9150506080830151848203608086015261159182826114e5565b91505060a083015184820360a08601526115ab82826114e5565b91505060c083015184820360c08601526115c582826114e5565b91505060e083015184820360e08601526115df82826114e5565b95945050505050565b6000602080830181845280855180835260408601915060408160051b870101925083870160005b8281101561163d57603f1988860301845261162b858351611532565b9450928501929085019060010161160f565b5092979650505050505050565b634e487b7160e01b600052604160045260246000fd5b600082601f83011261167157600080fd5b813567ffffffffffffffff8082111561168c5761168c61164a565b604051601f8301601f19908116603f011681019082821181831017156116b4576116b461164a565b816040528381528660208588010111156116cd57600080fd5b836020870160208301376000602085830101528094505050505092915050565b60008060008060008060c0878903121561170657600080fd5b86359550602087013567ffffffffffffffff8082111561172557600080fd5b6117318a838b01611660565b9650604089013591508082111561174757600080fd5b6117538a838b01611660565b9550606089013591508082111561176957600080fd5b6117758a838b01611660565b9450608089013591508082111561178b57600080fd5b6117978a838b01611660565b935060a08901359150808211156117ad57600080fd5b506117ba89828a01611660565b9150509295509295509295565b6000602082840312156117d957600080fd5b81356001600160a01b03811681146117f057600080fd5b9392505050565b60608152600061180a60608301866114e5565b828103602084015261181c81866114e5565b9150508215156040830152949350505050565b60006020828403121561184157600080fd5b813567ffffffffffffffff81111561185857600080fd5b61186484828501611660565b949350505050565b6000806040838503121561187f57600080fd5b50508035926020909101359150565b6000602082840312156118a057600080fd5b5035919050565b888152602081018890526001600160a01b0387166040820152610100606082018190526000906118d9838201896114e5565b905082810360808401526118ed81886114e5565b905082810360a084015261190181876114e5565b905082810360c084015261191581866114e5565b905082810360e084015261192981856114e5565b9b9a5050505050505050505050565b600181811c9082168061194c57607f821691505b6020821081141561196d57634e487b7160e01b600052602260045260246000fd5b50919050565b634e487b7160e01b600052601160045260246000fd5b6000821982111561199c5761199c611973565b500190565b8281526040602082015260006118646040830184611532565b6000602082840312156119cc57600080fd5b5051919050565b60208082526018908201527f4163636f756e7420616c72656164792063726561746564210000000000000000604082015260600190565b634e487b7160e01b600052603260045260246000fd5b600082821015611a3257611a32611973565b50039056fea264697066735822122053a1ab76bb16015d6d377ed53c5576743d6d43d8f2b2f065d13c3f607991aefa64736f6c63430008080033",
  "linkReferences": {},
  "deployedLinkReferences": {}
}